{
  "_format": "hh-sol-artifact-1",
  "contractName": "Signele",
  "sourceName": "contracts/Signele.sol",
  "abi": [
    {
      "inputs": [],
      "stateMutability": "nonpayable",
      "type": "constructor"
    },
    {
      "inputs": [],
      "name": "EnforcedPause",
      "type": "error"
    },
    {
      "inputs": [],
      "name": "ExpectedPause",
      "type": "error"
    },
    {
      "inputs": [],
      "name": "ReentrancyGuardReentrantCall",
      "type": "error"
    },
    {
      "anonymous": false,
      "inputs": [
        {
          "indexed": true,
          "internalType": "uint256",
          "name": "documentId",
          "type": "uint256"
        }
      ],
      "name": "DocumentCompleted",
      "type": "event"
    },
    {
      "anonymous": false,
      "inputs": [
        {
          "indexed": true,
          "internalType": "uint256",
          "name": "documentId",
          "type": "uint256"
        },
        {
          "indexed": false,
          "internalType": "string",
          "name": "title",
          "type": "string"
        },
        {
          "indexed": false,
          "internalType": "address[]",
          "name": "signers",
          "type": "address[]"
        },
        {
          "indexed": false,
          "internalType": "address",
          "name": "creator",
          "type": "address"
        }
      ],
      "name": "DocumentCreated",
      "type": "event"
    },
    {
      "anonymous": false,
      "inputs": [
        {
          "indexed": true,
          "internalType": "uint256",
          "name": "documentId",
          "type": "uint256"
        },
        {
          "indexed": false,
          "internalType": "address",
          "name": "signer",
          "type": "address"
        },
        {
          "indexed": false,
          "internalType": "string",
          "name": "signatureHash",
          "type": "string"
        }
      ],
      "name": "DocumentSigned",
      "type": "event"
    },
    {
      "anonymous": false,
      "inputs": [
        {
          "indexed": false,
          "internalType": "address",
          "name": "account",
          "type": "address"
        }
      ],
      "name": "Paused",
      "type": "event"
    },
    {
      "anonymous": false,
      "inputs": [
        {
          "indexed": false,
          "internalType": "address",
          "name": "account",
          "type": "address"
        }
      ],
      "name": "Unpaused",
      "type": "event"
    },
    {
      "inputs": [
        {
          "internalType": "string",
          "name": "_title",
          "type": "string"
        },
        {
          "internalType": "string",
          "name": "_description",
          "type": "string"
        },
        {
          "internalType": "string",
          "name": "_fileHash",
          "type": "string"
        },
        {
          "internalType": "address[]",
          "name": "_signers",
          "type": "address[]"
        }
      ],
      "name": "createDocument",
      "outputs": [],
      "stateMutability": "nonpayable",
      "type": "function"
    },
    {
      "inputs": [
        {
          "internalType": "uint256",
          "name": "_documentId",
          "type": "uint256"
        }
      ],
      "name": "getDocument",
      "outputs": [
        {
          "internalType": "string",
          "name": "title",
          "type": "string"
        },
        {
          "internalType": "string",
          "name": "description",
          "type": "string"
        },
        {
          "internalType": "string",
          "name": "fileHash",
          "type": "string"
        },
        {
          "internalType": "address[]",
          "name": "signers",
          "type": "address[]"
        },
        {
          "internalType": "address",
          "name": "creator",
          "type": "address"
        },
        {
          "internalType": "bool",
          "name": "completed",
          "type": "bool"
        }
      ],
      "stateMutability": "view",
      "type": "function"
    },
    {
      "inputs": [
        {
          "internalType": "uint256",
          "name": "_documentId",
          "type": "uint256"
        }
      ],
      "name": "getDocumentSignatures",
      "outputs": [
        {
          "components": [
            {
              "internalType": "address",
              "name": "signer",
              "type": "address"
            },
            {
              "internalType": "string",
              "name": "signatureHash",
              "type": "string"
            },
            {
              "internalType": "uint256",
              "name": "timestamp",
              "type": "uint256"
            }
          ],
          "internalType": "struct Signele.Signature[]",
          "name": "",
          "type": "tuple[]"
        }
      ],
      "stateMutability": "view",
      "type": "function"
    },
    {
      "inputs": [
        {
          "internalType": "address",
          "name": "_user",
          "type": "address"
        }
      ],
      "name": "getUserCreatedDocuments",
      "outputs": [
        {
          "internalType": "uint256[]",
          "name": "",
          "type": "uint256[]"
        }
      ],
      "stateMutability": "view",
      "type": "function"
    },
    {
      "inputs": [
        {
          "internalType": "address",
          "name": "_user",
          "type": "address"
        }
      ],
      "name": "getUserSignedDocuments",
      "outputs": [
        {
          "internalType": "uint256[]",
          "name": "",
          "type": "uint256[]"
        }
      ],
      "stateMutability": "view",
      "type": "function"
    },
    {
      "inputs": [
        {
          "internalType": "uint256",
          "name": "_documentId",
          "type": "uint256"
        },
        {
          "internalType": "address",
          "name": "_signer",
          "type": "address"
        }
      ],
      "name": "hasSignerSigned",
      "outputs": [
        {
          "internalType": "bool",
          "name": "",
          "type": "bool"
        }
      ],
      "stateMutability": "view",
      "type": "function"
    },
    {
      "inputs": [],
      "name": "pause",
      "outputs": [],
      "stateMutability": "nonpayable",
      "type": "function"
    },
    {
      "inputs": [],
      "name": "paused",
      "outputs": [
        {
          "internalType": "bool",
          "name": "",
          "type": "bool"
        }
      ],
      "stateMutability": "view",
      "type": "function"
    },
    {
      "inputs": [
        {
          "internalType": "uint256",
          "name": "_documentId",
          "type": "uint256"
        },
        {
          "internalType": "string",
          "name": "_signatureHash",
          "type": "string"
        }
      ],
      "name": "signDocument",
      "outputs": [],
      "stateMutability": "nonpayable",
      "type": "function"
    },
    {
      "inputs": [],
      "name": "unpause",
      "outputs": [],
      "stateMutability": "nonpayable",
      "type": "function"
    }
  ],
  "bytecode": "0x6080604052348015600f57600080fd5b5060008060006101000a81548160ff02191690831515021790555060018081905550600060048190555033600560006101000a81548173ffffffffffffffffffffffffffffffffffffffff021916908373ffffffffffffffffffffffffffffffffffffffff160217905550612174806100896000396000f3fe608060405234801561001057600080fd5b506004361061009e5760003560e01c80635308cfa9116100665780635308cfa91461015e5780635c975abb1461017a5780638456cb5914610198578063aef02d07146101a2578063d7baf81c146101d25761009e565b80632073c411146100a35780633cee1419146100bf5780633f4ba83a146100ef5780633f9b250a146100f957806350c7d8531461012e575b600080fd5b6100bd60048036038101906100b89190611488565b610202565b005b6100d960048036038101906100d49190611595565b6103d9565b6040516100e691906115f0565b60405180910390f35b6100f76104a3565b005b610113600480360381019061010e919061160b565b61053d565b60405161012596959493929190611784565b60405180910390f35b6101486004803603810190610143919061160b565b6107e6565b604051610155919061196c565b60405180910390f35b6101786004803603810190610173919061198e565b61094a565b005b610182610cc0565b60405161018f91906115f0565b60405180910390f35b6101a0610cd6565b005b6101bc60048036038101906101b791906119ea565b610d70565b6040516101c99190611ac6565b60405180910390f35b6101ec60048036038101906101e791906119ea565b610e07565b6040516101f99190611ac6565b60405180910390f35b61020a610e9e565b600081510361024e576040517f08c379a000000000000000000000000000000000000000000000000000000000815260040161024590611b34565b60405180910390fd5b60006004600081548092919061026390611b83565b9190505590506000600260008381526020019081526020016000209050858160000190816102919190611dd7565b50838160020190816102a39190611dd7565b50828160030190805190602001906102bc929190611161565b50848160010190816102ce9190611dd7565b50338160040160006101000a81548173ffffffffffffffffffffffffffffffffffffffff021916908373ffffffffffffffffffffffffffffffffffffffff16021790555060008160040160146101000a81548160ff021916908315150217905550600660003373ffffffffffffffffffffffffffffffffffffffff1673ffffffffffffffffffffffffffffffffffffffff168152602001908152602001600020829080600181540180825580915050600190039060005260206000200160009091909190915055817ff94d5868779948bf7654750ec490114a4dc394158cb424f330a0e49c925babd48785336040516103c993929190611ea9565b60405180910390a2505050505050565b60008060036000858152602001908152602001600020905060008180549050905060005b81811015610495578473ffffffffffffffffffffffffffffffffffffffff1683828154811061042f5761042e611eee565b5b906000526020600020906003020160000160009054906101000a900473ffffffffffffffffffffffffffffffffffffffff1673ffffffffffffffffffffffffffffffffffffffff1603610488576001935050505061049d565b80806001019150506103fd565b506000925050505b92915050565b600560009054906101000a900473ffffffffffffffffffffffffffffffffffffffff1673ffffffffffffffffffffffffffffffffffffffff163373ffffffffffffffffffffffffffffffffffffffff1614610533576040517f08c379a000000000000000000000000000000000000000000000000000000000815260040161052a90611f8f565b60405180910390fd5b61053b610edf565b565b6060806060806000806000600260008981526020019081526020016000209050806000018160010182600201836003018460040160009054906101000a900473ffffffffffffffffffffffffffffffffffffffff168560040160149054906101000a900460ff168580546105b090611bfa565b80601f01602080910402602001604051908101604052809291908181526020018280546105dc90611bfa565b80156106295780601f106105fe57610100808354040283529160200191610629565b820191906000526020600020905b81548152906001019060200180831161060c57829003601f168201915b5050505050955084805461063c90611bfa565b80601f016020809104026020016040519081016040528092919081815260200182805461066890611bfa565b80156106b55780601f1061068a576101008083540402835291602001916106b5565b820191906000526020600020905b81548152906001019060200180831161069857829003601f168201915b505050505094508380546106c890611bfa565b80601f01602080910402602001604051908101604052809291908181526020018280546106f490611bfa565b80156107415780601f1061071657610100808354040283529160200191610741565b820191906000526020600020905b81548152906001019060200180831161072457829003601f168201915b50505050509350828054806020026020016040519081016040528092919081815260200182805480156107c957602002820191906000526020600020905b8160009054906101000a900473ffffffffffffffffffffffffffffffffffffffff1673ffffffffffffffffffffffffffffffffffffffff168152602001906001019080831161077f575b505050505092509650965096509650965096505091939550919395565b606060036000838152602001908152602001600020805480602002602001604051908101604052809291908181526020016000905b8282101561093f57838290600052602060002090600302016040518060600160405290816000820160009054906101000a900473ffffffffffffffffffffffffffffffffffffffff1673ffffffffffffffffffffffffffffffffffffffff1673ffffffffffffffffffffffffffffffffffffffff1681526020016001820180546108a490611bfa565b80601f01602080910402602001604051908101604052809291908181526020018280546108d090611bfa565b801561091d5780601f106108f25761010080835404028352916020019161091d565b820191906000526020600020905b81548152906001019060200180831161090057829003601f168201915b505050505081526020016002820154815250508152602001906001019061081b565b505050509050919050565b610952610e9e565b61095a610f41565b60006002600084815260200190815260200160002090508060040160149054906101000a900460ff16156109c3576040517f08c379a00000000000000000000000000000000000000000000000000000000081526004016109ba90611ffb565b60405180910390fd5b610a553382600301805480602002602001604051908101604052809291908181526020018280548015610a4b57602002820191906000526020600020905b8160009054906101000a900473ffffffffffffffffffffffffffffffffffffffff1673ffffffffffffffffffffffffffffffffffffffff1681526020019060010190808311610a01575b5050505050610f87565b610a94576040517f08c379a0000000000000000000000000000000000000000000000000000000008152600401610a8b90612067565b60405180910390fd5b610a9e83336103d9565b15610ade576040517f08c379a0000000000000000000000000000000000000000000000000000000008152600401610ad5906120d3565b60405180910390fd5b600060405180606001604052803373ffffffffffffffffffffffffffffffffffffffff1681526020018481526020014281525090506003600085815260200190815260200160002081908060018154018082558091505060019003906000526020600020906003020160009091909190915060008201518160000160006101000a81548173ffffffffffffffffffffffffffffffffffffffff021916908373ffffffffffffffffffffffffffffffffffffffff1602179055506020820151816001019081610bac9190611dd7565b50604082015181600201555050600760003373ffffffffffffffffffffffffffffffffffffffff1673ffffffffffffffffffffffffffffffffffffffff168152602001908152602001600020849080600181540180825580915050600190039060005260206000200160009091909190915055837f4311e160327f69229ea0c2685a197083d95bacc38c3fa214e747ab608f1a72013385604051610c519291906120f3565b60405180910390a2610c628461100b565b15610cb25760018260040160146101000a81548160ff021916908315150217905550837f9177cd5b2ffd7b14208568cc03ffbd2c7043207657ee49df4c31e41760330da660405160405180910390a25b5050610cbc6110ae565b5050565b60008060009054906101000a900460ff16905090565b600560009054906101000a900473ffffffffffffffffffffffffffffffffffffffff1673ffffffffffffffffffffffffffffffffffffffff163373ffffffffffffffffffffffffffffffffffffffff1614610d66576040517f08c379a0000000000000000000000000000000000000000000000000000000008152600401610d5d90611f8f565b60405180910390fd5b610d6e6110b7565b565b6060600660008373ffffffffffffffffffffffffffffffffffffffff1673ffffffffffffffffffffffffffffffffffffffff168152602001908152602001600020805480602002602001604051908101604052809291908181526020018280548015610dfb57602002820191906000526020600020905b815481526020019060010190808311610de7575b50505050509050919050565b6060600760008373ffffffffffffffffffffffffffffffffffffffff1673ffffffffffffffffffffffffffffffffffffffff168152602001908152602001600020805480602002602001604051908101604052809291908181526020018280548015610e9257602002820191906000526020600020905b815481526020019060010190808311610e7e575b50505050509050919050565b610ea6610cc0565b15610edd576040517fd93c066500000000000000000000000000000000000000000000000000000000815260040160405180910390fd5b565b610ee7611119565b60008060006101000a81548160ff0219169083151502179055507f5db9ee0a495bf2e6ff9c91a7834c1ba4fdd244a5e8aa4e537bd38aeae4b073aa610f2a611159565b604051610f379190612123565b60405180910390a1565b600260015403610f7d576040517f3ee5aeb500000000000000000000000000000000000000000000000000000000815260040160405180910390fd5b6002600181905550565b6000808251905060005b81811015610ffe578473ffffffffffffffffffffffffffffffffffffffff16848281518110610fc357610fc2611eee565b5b602002602001015173ffffffffffffffffffffffffffffffffffffffff1603610ff157600192505050611005565b8080600101915050610f91565b5060009150505b92915050565b60008060026000848152602001908152602001600020905060008160030180549050905060005b818110156110a1576110848584600301838154811061105457611053611eee565b5b9060005260206000200160009054906101000a900473ffffffffffffffffffffffffffffffffffffffff166103d9565b61109457600093505050506110a9565b8080600101915050611032565b506001925050505b919050565b60018081905550565b6110bf610e9e565b60016000806101000a81548160ff0219169083151502179055507f62e78cea01bee320cd4e420270b5ea74000d11b0c9f74754ebdbfc544b05a258611102611159565b60405161110f9190612123565b60405180910390a1565b611121610cc0565b611157576040517f8dfc202b00000000000000000000000000000000000000000000000000000000815260040160405180910390fd5b565b600033905090565b8280548282559060005260206000209081019282156111da579160200282015b828111156111d95782518260006101000a81548173ffffffffffffffffffffffffffffffffffffffff021916908373ffffffffffffffffffffffffffffffffffffffff16021790555091602001919060010190611181565b5b5090506111e791906111eb565b5090565b5b808211156112045760008160009055506001016111ec565b5090565b6000604051905090565b600080fd5b600080fd5b600080fd5b600080fd5b6000601f19601f8301169050919050565b7f4e487b7100000000000000000000000000000000000000000000000000000000600052604160045260246000fd5b61126f82611226565b810181811067ffffffffffffffff8211171561128e5761128d611237565b5b80604052505050565b60006112a1611208565b90506112ad8282611266565b919050565b600067ffffffffffffffff8211156112cd576112cc611237565b5b6112d682611226565b9050602081019050919050565b82818337600083830152505050565b6000611305611300846112b2565b611297565b90508281526020810184848401111561132157611320611221565b5b61132c8482856112e3565b509392505050565b600082601f8301126113495761134861121c565b5b81356113598482602086016112f2565b91505092915050565b600067ffffffffffffffff82111561137d5761137c611237565b5b602082029050602081019050919050565b600080fd5b600073ffffffffffffffffffffffffffffffffffffffff82169050919050565b60006113be82611393565b9050919050565b6113ce816113b3565b81146113d957600080fd5b50565b6000813590506113eb816113c5565b92915050565b60006114046113ff84611362565b611297565b905080838252602082019050602084028301858111156114275761142661138e565b5b835b81811015611450578061143c88826113dc565b845260208401935050602081019050611429565b5050509392505050565b600082601f83011261146f5761146e61121c565b5b813561147f8482602086016113f1565b91505092915050565b600080600080608085870312156114a2576114a1611212565b5b600085013567ffffffffffffffff8111156114c0576114bf611217565b5b6114cc87828801611334565b945050602085013567ffffffffffffffff8111156114ed576114ec611217565b5b6114f987828801611334565b935050604085013567ffffffffffffffff81111561151a57611519611217565b5b61152687828801611334565b925050606085013567ffffffffffffffff81111561154757611546611217565b5b6115538782880161145a565b91505092959194509250565b6000819050919050565b6115728161155f565b811461157d57600080fd5b50565b60008135905061158f81611569565b92915050565b600080604083850312156115ac576115ab611212565b5b60006115ba85828601611580565b92505060206115cb858286016113dc565b9150509250929050565b60008115159050919050565b6115ea816115d5565b82525050565b600060208201905061160560008301846115e1565b92915050565b60006020828403121561162157611620611212565b5b600061162f84828501611580565b91505092915050565b600081519050919050565b600082825260208201905092915050565b60005b83811015611672578082015181840152602081019050611657565b60008484015250505050565b600061168982611638565b6116938185611643565b93506116a3818560208601611654565b6116ac81611226565b840191505092915050565b600081519050919050565b600082825260208201905092915050565b6000819050602082019050919050565b6116ec816113b3565b82525050565b60006116fe83836116e3565b60208301905092915050565b6000602082019050919050565b6000611722826116b7565b61172c81856116c2565b9350611737836116d3565b8060005b8381101561176857815161174f88826116f2565b975061175a8361170a565b92505060018101905061173b565b5085935050505092915050565b61177e816113b3565b82525050565b600060c082019050818103600083015261179e818961167e565b905081810360208301526117b2818861167e565b905081810360408301526117c6818761167e565b905081810360608301526117da8186611717565b90506117e96080830185611775565b6117f660a08301846115e1565b979650505050505050565b600081519050919050565b600082825260208201905092915050565b6000819050602082019050919050565b600082825260208201905092915050565b600061184982611638565b611853818561182d565b9350611863818560208601611654565b61186c81611226565b840191505092915050565b6118808161155f565b82525050565b600060608301600083015161189e60008601826116e3565b50602083015184820360208601526118b6828261183e565b91505060408301516118cb6040860182611877565b508091505092915050565b60006118e28383611886565b905092915050565b6000602082019050919050565b600061190282611801565b61190c818561180c565b93508360208202850161191e8561181d565b8060005b8581101561195a578484038952815161193b85826118d6565b9450611946836118ea565b925060208a01995050600181019050611922565b50829750879550505050505092915050565b6000602082019050818103600083015261198681846118f7565b905092915050565b600080604083850312156119a5576119a4611212565b5b60006119b385828601611580565b925050602083013567ffffffffffffffff8111156119d4576119d3611217565b5b6119e085828601611334565b9150509250929050565b600060208284031215611a00576119ff611212565b5b6000611a0e848285016113dc565b91505092915050565b600081519050919050565b600082825260208201905092915050565b6000819050602082019050919050565b6000611a4f8383611877565b60208301905092915050565b6000602082019050919050565b6000611a7382611a17565b611a7d8185611a22565b9350611a8883611a33565b8060005b83811015611ab9578151611aa08882611a43565b9750611aab83611a5b565b925050600181019050611a8c565b5085935050505092915050565b60006020820190508181036000830152611ae08184611a68565b905092915050565b7f4174206c65617374206f6e65207369676e657220697320726571756972656400600082015250565b6000611b1e601f83611643565b9150611b2982611ae8565b602082019050919050565b60006020820190508181036000830152611b4d81611b11565b9050919050565b7f4e487b7100000000000000000000000000000000000000000000000000000000600052601160045260246000fd5b6000611b8e8261155f565b91507fffffffffffffffffffffffffffffffffffffffffffffffffffffffffffffffff8203611bc057611bbf611b54565b5b600182019050919050565b7f4e487b7100000000000000000000000000000000000000000000000000000000600052602260045260246000fd5b60006002820490506001821680611c1257607f821691505b602082108103611c2557611c24611bcb565b5b50919050565b60008190508160005260206000209050919050565b60006020601f8301049050919050565b600082821b905092915050565b600060088302611c8d7fffffffffffffffffffffffffffffffffffffffffffffffffffffffffffffffff82611c50565b611c978683611c50565b95508019841693508086168417925050509392505050565b6000819050919050565b6000611cd4611ccf611cca8461155f565b611caf565b61155f565b9050919050565b6000819050919050565b611cee83611cb9565b611d02611cfa82611cdb565b848454611c5d565b825550505050565b600090565b611d17611d0a565b611d22818484611ce5565b505050565b5b81811015611d4657611d3b600082611d0f565b600181019050611d28565b5050565b601f821115611d8b57611d5c81611c2b565b611d6584611c40565b81016020851015611d74578190505b611d88611d8085611c40565b830182611d27565b50505b505050565b600082821c905092915050565b6000611dae60001984600802611d90565b1980831691505092915050565b6000611dc78383611d9d565b9150826002028217905092915050565b611de082611638565b67ffffffffffffffff811115611df957611df8611237565b5b611e038254611bfa565b611e0e828285611d4a565b600060209050601f831160018114611e415760008415611e2f578287015190505b611e398582611dbb565b865550611ea1565b601f198416611e4f86611c2b565b60005b82811015611e7757848901518255600182019150602085019450602081019050611e52565b86831015611e945784890151611e90601f891682611d9d565b8355505b6001600288020188555050505b505050505050565b60006060820190508181036000830152611ec3818661167e565b90508181036020830152611ed78185611717565b9050611ee66040830184611775565b949350505050565b7f4e487b7100000000000000000000000000000000000000000000000000000000600052603260045260246000fd5b7f4f6e6c7920746865206f776e65722063616e2063616c6c20746869732066756e60008201527f6374696f6e000000000000000000000000000000000000000000000000000000602082015250565b6000611f79602583611643565b9150611f8482611f1d565b604082019050919050565b60006020820190508181036000830152611fa881611f6c565b9050919050565b7f446f63756d656e7420616c726561647920636f6d706c65746564000000000000600082015250565b6000611fe5601a83611643565b9150611ff082611faf565b602082019050919050565b6000602082019050818103600083015261201481611fd8565b9050919050565b7f4e6f7420617574686f72697a656420746f207369676e00000000000000000000600082015250565b6000612051601683611643565b915061205c8261201b565b602082019050919050565b6000602082019050818103600083015261208081612044565b9050919050565b7f416c7265616479207369676e6564000000000000000000000000000000000000600082015250565b60006120bd600e83611643565b91506120c882612087565b602082019050919050565b600060208201905081810360008301526120ec816120b0565b9050919050565b60006040820190506121086000830185611775565b818103602083015261211a818461167e565b90509392505050565b60006020820190506121386000830184611775565b9291505056fea2646970667358221220ac87782007da0d3f7984c3d2cc14ad30a1a707765062cee207d4e4f04ebd777f64736f6c634300081a0033",
  "linkReferences": {},
  "deployedLinkReferences": {}
}